:02000000C42911
:10000800FF00030E8301B3000A08B2008A017008DA
:10001800A2007108A1007208A0000B1D1D28F8306D
:100028008100AF0A0319B00AAB0A0319AC0AFB3006
:100038008B050C1D4628310803192F282E08F000BF
:10004800F101700896002D089500B101093097005C
:100058008F018E0144282D08403CF3002E08031C14
:10006800013E9C3CF4007408F000F1017008960011
:1000780073089500083097000130B1008F018E0198
:10008800FB308C050C1C4A28FE308C052208F00039
:100098002108F1002008F20032088A00330E83009C
:0600A800FF0E7F0E0900AF
:1000AE0083120313AF01B00180303006F0008030B0
:1000BE0035067002031D652834082F0203186828C0
:0400CE005B280800A3
:0A00D2000F308312031387050800A6
:1000DC000F30831203130705F000503070048700B3
:1000EC000330B4000030B500572069200330B40051
:0800FC000030B5005720080098
:100104008312031386140A30B4000030B50057205C
:10011400FD3086050A30B4000030B50057200800D1
:100124000F30831203130705F0009030700487002A
:100134002308B4002408B500572069202308B4001C
:080144002408B5005720080053
:0A014C00FD3083120313860508003E
:10015600831203131F151F1DB128AE281E08F100B8
:0E016600F00183161E08F0040030F1040800BA
:100174000F30831203130705F0006030700487000A
:100184002308B4002408B500572069202308B400CC
:080194002408B5005720080003
:0E019C008312031328088A0027088200080037
:1001AA000F30831203130705F000A0307004870094
:1001BA000330B4000030B500572069200330B40082
:0801CA000030B50057200800C9
:1001D200AB2070088312A9007108AA00861F172994
:1001E20000302A02031DF72864302902031C022969
:1001F2002A08033C031DFF282908B63C031C0229D8
:10020200032917298220AC30AD000D30AE00DC305E
:10021200B4000530B5005720E830AD000330AE0021
:10022200DC30B4000530B5005720EF28A620CA30D4
:08023200AD000830AE00080029
:10023A00AB2070088312A9007108AA0000302A02B4
:10024A00031D292964302902031833296E20AB20A3
:10025A0070088312A9007108AA00232969200800DE
:10026A00AB2070088312A9007108AA0000302A0284
:10027A00031D412964302902031C56292A08033C1C
:10028A00031D49292908DE3C031C5629081B4E294F
:10029A005629AB2070088312A9007108AA00D5203C
:0602AA003B296920080059
:1002B00083120313861E7029AB01AC01861B6F29C4
:1002C00080302C06F000803026067002031D6A295B
:1002D00025082B02031C6D296F29BA205E2969208D
:0202E000080014
:1002E200831603138701FD308600013085004030FC
:1002F2008800FD30831286058801870187308316C6
:100302008100F83083128100E0308B0001309000D0
:100312008F018E010830970083160C150730831267
:0C0322009600D03095000130B1000800BA
:10032E00CE208A110A128000840AA70A0319A80A8D
:08033E00F003031D97290800DC
:1003460083120313061EBB29AB01AC01861BBA2917
:1003560080302C06F000803026067002031DB52979
:1003660025082B02031CB829BA299220A92969203D
:0203760008007D
:100378004130831203139F00CE3083169F0008007C
:10038800043083120313A300A4018830A50013309E
:10039800A6007121BC21A321582135211D21E92066
:0403A800CF29D5295B
:02400E004A2F37
:00000001FF
